S01600004154393043414E33325F746573742E73726563BA
S11300000C944A000C9467000C9467000C946700ED
S11300100C9467000C9467000C9467000C946700C0
S11300200C9467000C9467000C9467000C946700B0
S11300300C9467000C9467000C9467000C946700A0
S11300400C9467000C9467000C9467000C94670090
S11300500C9467000C9467000C9467000C94670080
S11300600C9467000C9467000C9467000C94670070
S11300700C9467000C9467000C9467000C94670060
S11300800C9467000C9467000C9467000C94670050
S11300900C94670011241FBECFEFD8E0DEBFCDBFA4
S11300A011E0A0E0B1E0E8E1F1E002C005900D92BA
S11300B0A030B107D9F721E0A0E0B1E001C01D9262
S11300C0A030B207E1F70E9469000C948A000C94F6
S11300D00000219A299A83E390E00E947D0092E037
S11300E085B1892785B92FEF39E688E12150304061
S11300F08040E1F700C00000F3CF9093C5008093E7
S1130100C40088E18093C100E2ECF0E08081866065
S10B011080830895F894FFCFE9
S9030000FC
